:020000040800F2
:1000000000280020ED050008C9050008CB05000800
:10001000CD050008CF050008D1050008000000004C
:10002000000000000000000000000000D3050008F0
:10003000D505000800000000D7050008D905000814
:1000400035060008350600083506000835060008A4
:100050003506000835060008350600083506000894
:100060003506000835060008350600083506000884
:100070003506000835060008350600083506000874
:100080003506000835060008350600083506000864
:100090003506000835060008350600083506000854
:1000A0003506000835060008350600083506000844
:1000B0003506000835060008000000003506000877
:1000C00035060008000000000000000035060008AA
:1000D00000000000DD0500083506000800000000F3
:1000E0003506000835060008350600080000000047
:1000F0000000000000000000000000000000000000
:0C01000000000000000000005FF808F1A3
:10010C0010B5054C237833B9044B13B10448AFF345
:10011C0000800123237010BDB000002000000000FF
:10012C005817000808B5034B1BB103490348AFF33C
:10013C00008008BD00000000B40000205817000823
:10014C00034613F8012B002AFBD1181A013870470B
:10015C00284B1B78303B092B42D8DFE803F0050A0B
:10016C000C192124262E354201220421224800F0AC
:10017C0041BC0022F9E7214B1A780A32D2B2632A29
:10018C0088BF64221A701E4A1B781268536370472A
:10019C001A4B1A780A3AD2B20A2A98BF0A22F1E705
:1001AC0001220221E2E70022FBE7164A1368043B16
:1001BC00052B98BF052313607047124A136804334C
:1001CC00132B88BF1423F6E70F4B1A780132D2B2E7
:1001DC00092A88BF0A221A70094A1B78126893638D
:1001EC007047094B1A78013AD2B2052A98BF0522FA
:1001FC00F1E700BFCC000020000801400000002007
:10020C00D0000020A00000209C00002070B5134DF1
:10021C00134C2846FFF794FF294682B26423114DF4
:10022C00204601F003F90A2000F048FA2846FFF7AF
:10023C0087FF294682B264230B4D204601F0F6F865
:10024C000A2000F03BFA2846FFF77AFF294682B2D3
:10025C0064232046BDE8704001F0E8B8010000209E
:10026C0018010020450000207D00002010B590B042
:10027C001022002109A801F061FA1422002101A822
:10028C0001F05CFA022401214FF48032002306A80D
:10029C00CDE906120A91CDE90D4208930F9300F0B7
:1002AC00B7FB014608B172B6FEE70F239022CDE9E9
:1002BC0001344FF48063059001A8CDE9032300F0CD
:1002CC007DFD08B172B6FEE710B010BD80B58CB0E4
:1002DC0000F0D0F9FFF7CAFF1022002105A801F0A9
:1002EC002DFA5F4B07219A695E4842F020029A6111
:1002FC009A69002402F020020092009A9A69012562
:10030C0042F004029A619A69022702F004020192F7
:10031C00019A9A6942F008029A619B69002203F0E3
:10032C0008030293029B00F065FB00224FF404418A
:10033C004D4800F05FFB07234A4805A9CDE9053578
:10034C00CDE9074700F07AFA4FF40443464805A973
:10035C00CDE90535CDE9074700F070FA4FF4165397
:10036C00424D43492846C5E900130C23C5E9024414
:10037C00C5E905342C61EC6101F02AF8064608B198
:10038C0072B6FEE71C220146CDE9030005A801F078
:10039C00D5F9C723374C384A2046C4E900236323D8
:1003AC00A660C4E90336A66100F06AFE08B172B615
:1003BC00FEE7CDE9030003A9204600F06FFF0246DB
:1003CC0008B172B6FEE760230990CDE9053005A9A6
:1003DC002046079700F0ACFE08B172B6FEE7042287
:1003EC00204605A900F0A4FE064608B172B6FEE749
:1003FC00204600F081F831463246252000F082F983
:10040C00252000F0B1F92A68D36843F02003D360AB
:10041C00FFF7FCFE0421204600F03EFF314620464B
:10042C0000F03AFF154A23681278154E9A63154A64
:10043C000C4C12785A6331460122284601F04BF8D5
:10044C000221084800F0D0FA0028F4D020460121FF
:10045C0000F0D5FA0C4B186800F030F9EBE700BF50
:10046C000010024000080140000C0140180100205F
:10047C0000380140D0000020000400409C00002007
:10048C00CC00002000000020A00000200E4B82B009
:10049C009A6942F001029A619A6902F00102009293
:1004AC00009ADA6942F08052DA61DB69074A03F09C
:1004BC0080530193019B536823F0E06343F0806306
:1004CC00536002B0704700BF0010024000000140B2
:1004DC000268084B82B09A420AD103F50333DA69F9
:1004EC0042F00202DA61DB6903F002030193019B23
:1004FC0002B070470004004010B5044686B01022CC
:10050C00002102A801F01AF922680C4B9A4213D16F
:10051C0003F503339A690A4842F004029A619B6915
:10052C00C02203F004030193019B022302A9CDE92D
:10053C000223059300F082F906B010BD00040040C0
:10054C000008014010B5044686B01022002102A814
:10055C0001F0F4F82268174B9A4228D103F558435E
:10056C009A69154842F480429A619A6902A902F488
:10057C0080420092009A9A6942F004029A619B6947
:10058C004FF4007203F004030193019B0223CDE9A5
:10059C0002230323059300F051F94FF480610023EB
:1005AC000548CDE9021302A9049300F047F906B0FF
:1005BC0010BD00BF0038014000080140FEE7FEE717
:1005CC00FEE7FEE7FEE770477047704700F064B83F
:1005DC00014800F0E5BF00BF180100207047000083
:1005EC00002103E00B4B5B58435004310A480B4B82
:1005FC0042189A42F6D30A4A02E0002342F8043B1E
:10060C00084B9A42F9D3FFF7E9FF01F073F8FFF7B3
:10061C005DFE7047A417000800000020B000002009
:10062C00B00000205C010020FEE7000038B50E4B46
:10063C00054618784FF47A73B3FBF0F30B4A106845
:10064C00B0FBF3F000F09EF8044658B90F2D09D812
:10065C00024629464FF0FF3000F054F82046044B78
:10066C001D6038BD0120FCE7A8000020A40000207C
:10067C00AC000020074A08B51368032043F01003B0
:10068C00136000F02DF80020FFF7D0FFFFF7FEFEFF
:10069C00002008BD00200240034A044B11681B785F
:1006AC000B441360704700BF58010020A8000020C5
:1006BC00014B1868704700BF5801002038B504463C
:1006CC00FFF7F6FF0546631C1EBF044B1B78E418AE
:1006DC00FFF7EEFF431BA342FAD338BDA80000205E
:1006EC0007490302CA6803F4E06322F4E0621204CF
:1006FC00120C134343F0BF6343F40033CB607047D9
:10070C0000ED00E0164B30B5DC68C4F30224C4F1F4
:10071C000703251D042B28BF0423062D4FF0FF359E
:10072C0098BF002405FA03F388BF033C21EA0303B6
:10073C00A34005FA04F422EA0402002843EA020367
:10074C00ACBF00F16040074A4FEA0313DBB2ABBF0A
:10075C0000F5614000F00F0080F80033135430BDF9
:10076C0000ED00E014ED00E0002808DB0123420955
:10077C0000F01F0003FA00F0014B43F82200704711
:10078C0000E100E00138B0F1807F0AD2F021064B85
:10079C00064A586082F823100020072298601A60DD
:1007AC0070470120704700BF10E000E000ED00E052
:1007BC0008B590F82130022B03D004238363012069
:1007CC0008BD03681A6822F00E021A601A6822F03B
:1007DC0001021A60174A93421CD0143293421BD068
:1007EC00143293421AD0143293421AD014329342D8
:1007FC001AD0143293420CBF4FF480134FF0807315
:10080C000D4A53604FF480730384436B7BB198475C
:10081C000020D5E70123F3E71023F1E74FF48073B1
:10082C00EEE74FF48053EBE74FF48033E8E71846DC
:10083C00C6E700BF08000240000002402DE9F74F58
:10084C0000221646604BDFF894C1DFF894E10D6886
:10085C0035FA06F402D103B0BDE8F08F4FF0010871
:10086C0008FA06F805EA080438EA050578D14D6857
:10087C00032D07D8013D022D00F28280DFE805F040
:10088C0091969C00122D00F094806BD8112D00F0E5
:10089C008A80FF2C98BF82464FF00F0988BF00F169
:1008AC00040A4FEA8605DAF8008088BF203D09FA71
:1008BC0005FB28EA0B0802FA05F548EA0505CAF813
:1008CC000050D1F804A01AF0805F49D03F4F26F0B9
:1008DC000308BD6908F1804845F00105BD61BD699B
:1008EC0008F5803805F00105019506F0030B019D14
:1008FC004FEA8B0BD8F8085009FA0BF925EA0909CD
:10090C00334DA8425CD005F58065A8425AD005F558
:10091C008065A8420CBF0225032505FA0BF545EAB4
:10092C000905C8F808501D681AF4803F14BF254308
:10093C00A5431D605D681AF4003F14BF2543A54311
:10094C005D609D681AF4801F14BF2543A5439D600C
:10095C00DD681AF4001F14BF2C4325EA0404DC6084
:10096C00013674E71B4FBD420AD015D8754507D028
:10097C00DFF870904D4503D0A9F580194D4588D10D
:10098C008A68DAB1012A08BFC0F810804FF008025B
:10099C0018BFC0F814807CE70F4FBD42F0D06545FE
:1009AC00EDE7CA6875E7CA68043272E7CA680832AC
:1009BC006FE7CA680C326CE700226AE7042268E72A
:1009CC000025AAE70125A8E7000401400010024019
:1009DC00000801400000221000003110000032100D
:1009EC0000001210000021108368194214BF01206E
:1009FC00002070470AB1016170470904FBE7C36826
:100A0C0001EA030221EA030141EA02410161704754
:100A1C002DE9F341054638B30368DB0710D42B6886
:100A2C009F075ED42B68190700F195802B685A0735
:100A3C0000F1BF80E869002840F02C81002029E0FB
:100A4C008F4C636803F00C03042B07D0636803F02E
:100A5C000C03082B0AD16368DE0307D523689C03BB
:100A6C00DDD56B68002BDAD1012013E06B68B3F590
:100A7C00803F12D1236843F480332360FFF718FEC4
:100A8C00064623689803CAD4FFF712FE801B64281D
:100A9C00F7D9032002B0BDE8F0819BB9236823F499
:100AAC0080332360236823F480232360FFF700FE48
:100ABC00064623689903B2D5FFF7FAFD801B64281C
:100ACC00F7D9E6E7B3F5A02F236803D143F48023CD
:100ADC002360CFE723F480332360236823F480233F
:100AEC00CBE7674C636813F00C0F07D0636803F017
:100AFC000C03082B10D16368DA030DD423689B0711
:100B0C0002D52B69012BAFD123686A6923F0F80356
:100B1C0043EAC203236085E72A695A4B6AB1012272
:100B2C001A60FFF7C5FD064623689F07ECD4FFF754
:100B3C00BFFD801B0228F7D9ABE71A60FFF7B8FDA1
:100B4C000646236898077FF56DAFFFF7B1FD801B54
:100B5C000228F6D99DE7AA69494E4B4BDAB101221E
:100B6C001A60FFF7A5FD0446736A9B070DD54FF479
:100B7C00FA52464B1B68B3FBF2F3019300BF019B87
:100B8C005A1E0192002BF9D150E7FFF791FD001B83
:100B9C000228E9D97DE71A60FFF78AFD0446736ADB
:100BAC009F077FF543AFFFF783FD001B0228F6D9A3
:100BBC006FE7334CE369D80024D40127E36943F091
:100BCC008053E361E36903F080530093009B304E44
:100BDC003368D90518D5EB68012B26D1236A43F06D
:100BEC0001032362FFF764FD41F288380646236A4D
:100BFC009B073FD5002F3FF41DAFE36923F08053D3
:100C0C00E36117E70027E2E7336843F4807333604E
:100C1C00FFF74EFD80463368DA05DCD4FFF748FD5C
:100C2C00A0EB08006428F6D933E7ABB9236A41F28C
:100C3C00883823F001032362236A23F00403236220
:100C4C00FFF736FD0646236A9807D3D5FFF730FD2C
:100C5C00801B4045F7D91CE7052B236A03D143F0D1
:100C6C0004032362BAE723F001032362236A23F00F
:100C7C000403B6E7FFF71CFD801B4045B7D908E716
:100C8C00001002400000424280044242A4000020B6
:100C9C00007000402A4B5A681C4602F00C02082ACD
:100CAC003DD00023274E022833602BD1FFF700FDE7
:100CBC000746236899011FD42B6AB3F5803F05D1F1
:100CCC006268A96822F400320A436260696A626849
:100CDC000B4322F474121343636001233360FFF758
:100CEC00E7FC054623689A013FF5A8AEFFF7E0FC48
:100CFC00401B0228F6D9CCE6FFF7DAFCC01B022811
:100D0C00D7D9C6E6FFF7D4FC054623689B017FF5CF
:100D1C0095AEFFF7CDFC401B0228F6D9B9E60128A9
:100D2C003FF4B8AE5B682A6A03F4803191427FF4D9
:100D3C009BAE6A6A03F4701393423FF47FAE93E662
:100D4C00001002406000424230B5184B87B002AC34
:100D5C0003F11005224618685968083303C2AB42E8
:100D6C001446F7D140F201231149ADF804304B6819
:100D7C0003F00C02082A17D1C3F3834206A80244DD
:100D8C00DB0312F8102C0CD54B680A48C3F3404314
:100D9C00504306AA134413F8143CB0FBF3F007B00D
:100DAC0030BD05485043FAE70248F8E788170008B9
:100DBC000010024000127A0000093D002DE9F041BC
:100DCC000D46044610B90120BDE8F081444A136871
:100DDC0003F007038B4228D321688E0730D4CA074F
:100DEC0043D43F4A136803F00703AB4265D822682B
:100DFC003C4D12F0040F6CD1130706D56B682269B9
:100E0C0023F4605343EAC2036B60FFF79DFF6B68EA
:100E1C00354AC3F30313D35CD840344B1860344BBE
:100E2C001868FFF703FC0020CEE7136823F00703D4
:100E3C000B431360136803F007038B42C3D1CBE75A
:100E4C00284B11F0040F1EBF5A6842F4E0625A603E
:100E5C00080742BF5A6842F460525A605A68A06848
:100E6C0022F0F00202435A60B9E762681D4E012A73
:100E7C0033681AD113F4003FA5D0736841F2883857
:100E8C0023F0030313437360FFF712FC07467368E8
:100E9C00626803F00C03B3EB820FA2D0FFF708FCDF
:100EAC00C01B4045F3D903208EE7022A02D113F070
:100EBC00007FE1E713F0020FDEE7136823F007036E
:100ECC002B431360136803F00703AB427FF47BAF33
:100EDC008DE76B68E16823F4E0630B436B608BE791
:100EEC00002002400010024070170008A4000020EF
:100EFC00AC000020044B054A5B68C3F30223D35CAF
:100F0C00034A1068D8407047001002408017000850
:100F1C00A4000020044B054A5B68C3F3C223D35CD6
:100F2C00034A1068D8407047001002408017000830
:100F3C00A4000020036A70B523F001030362036A66
:100F4C00446882690D6822F073022A438D6823F08D
:100F5C0002032B430A4DA8420BD1CD6823F00803A2
:100F6C002B4324F44074D1E90556354323F0040394
:100F7C002C43446082614A684263036270BD00BFC7
:100F8C00002C0140036A70B523F480730362036A7A
:100F9C004468C2690D6822F073022A438D6823F4F9
:100FAC00007343EA05230B4DA8420DD1CD6823F401
:100FBC00006343EA052324F44054D1E90556354334
:100FCC0023F4806344EA05144460C2614A68C26336
:100FDC00036270BD002C0140036A30B523F48053CA
:100FEC000362036A4468C2690D6822F4E64242EA6D
:100FFC0005228D6823F4005343EA0533064DA842BD
:10100C0002BF4D6924F4804444EA85144460C261F3
:10101C004A680264036230BD002C0140164A10B5C8
:10102C009042036805D0B0F1804F02D0134CA0421F
:10103C0010D14C6823F07003904243EA040305D0AE
:10104C00B0F1804F02D00D4A904203D1CA6823F40C
:10105C00407313434A6923F08003134303608B6886
:10106C00C3620B688362044B984204BF0B69036331
:10107C000123436110BD00BF002C0140000400405F
:10108C0010B5044630B390F83D3003F0FF021BB9A5
:10109C0080F83C20FFF71CFA0223206884F83D30CE
:1010AC00211DFFF7BBFF0123002084F8463084F894
:1010BC003E3084F83F3084F8403084F8413084F876
:1010CC00423084F8433084F8443084F8453084F856
:1010DC003D3010BD0120FCE7036A70B523F010030E
:1010EC000362036A446882690D6822F4E64242EAAC
:1010FC0005228D6823F0200343EA05130B4DA8420B
:10110C000DD1CD6823F0800343EA051324F4406429
:10111C00D1E90556354323F0400344EA8504446085
:10112C0082614A688263036270BD00BF002C01407B
:10113C0038B590F83C300446012B52D00123082AD4
:10114C0080F83C303CD006D8C2B1042A27D000200D
:10115C0084F83C0038BD0C2AF9D10068FFF73CFF3D
:10116C0023680969DA6942F40062DA61DA6922F407
:10117C008062DA61DA6942EA012230E00068FFF746
:10118C00D9FE236809699A6942F008029A619A6942
:10119C0022F004029A619A690A439A61D7E70068BF
:1011AC00FFF79AFF236809699A6942F400629A6111
:1011BC009A6922F480629A619A6942EA0122ECE708
:1011CC000068FFF7DFFE23680969DA6942F008025C
:1011DC00DA61DA6922F00402DA61DA690A43DA6167
:1011EC00B5E70220B6E710B50124036A01F01F0130
:1011FC008C4023EA04030362036A8A401A430262A6
:10120C0010BD000010B5044629B990F83E30012BF2
:10121C001DD0012010BD042907D190F83F30012BBF
:10122C00F7D1022380F83F3014E0082907D190F859
:10123C004030012BEDD1022380F840300AE090F8C9
:10124C004130012BE5D1022380F8413002E002232A
:10125C0080F83E3001222068FFF7C5FF23680C4A56
:10126C0093420AD15A6C42F400425A649A6802F0D2
:10127C000702062A07D10020CCE7B3F1804FF5D046
:10128C00044A9342F2D01A6842F001021A60F2E763
:10129C00002C014000040040FFF7B4BF30B590F8BB
:1012AC003C200346012A4FF002001ED01A6883F836
:1012BC003D0054680D6824F070042C439068546011
:1012CC000A4CA24206D0B2F1804F03D0A4F594345C
:1012DC00A24204D1496820F08000014391600122B0
:1012EC00002083F83D2083F83C0030BD002C0140E9
:1012FC000368DA6822F49072DA605A6922F001020B
:10130C005A61202380F83A307047000010B504462B
:10131C000368C1681A6922F440520A431A61826850
:10132C000069D9680243606921F4B05121F00C01C5
:10133C0002430A43DA605A69A16922F440720A43F3
:10134C005A610E4A934215D1FFF7E4FD192343432A
:10135C00626820689200B3FBF2F36422B3FBF2F1F3
:10136C0002FB11331B013233B3FBF2F303EB01131A
:10137C00836010BDFFF7BEFDE8E700BF00380140F9
:10138C00F8B504460E4617461D462268136836EA21
:10139C00030301D1002014E06B1CF7D095B923682E
:1013AC000320DA6822F4D072DA605A6922F0010262
:1013BC005A61202384F8393084F83A30002384F8B9
:1013CC003830F8BDFFF774F9C01B8542DDD2E6E773
:1013DC0010B5044640B390F8393003F0FF021BB946
:1013EC0080F83820FFF7AEF82423226884F83930CF
:1013FC00D368204623F40053D360FFF787FF23689C
:10140C0000201A6922F490421A615A6922F02A02C9
:10141C005A61DA6842F40052DA602023E06384F8FF
:10142C00393084F83A3010BD0120FCE72DE9F8433F
:10143C00994690F839300446202B0E46174648D171
:10144C00002944D0002A42D090F83830012B40D0EB
:10145C000123002580F838302123C56380F839300A
:10146C00FFF726F9A3688046B3F5805FA784E7846D
:10147C0003D123690BB935461E46002384F8383056
:10148C00E38C9BB253B94B46424640212046FFF7B2
:10149C0077FF50B9202384F8393007E04B46424699
:1014AC0080212046FFF76CFF10B10320BDE8F883C4
:1014BC0022684EB935F8023BC3F308035360E18C44
:1014CC00013989B2E184DBE716F8013BF6E701202C
:1014DC00ECE70220EAE790F83A30202B20D1E9B172
:1014EC00E2B190F83830012B1AD0C28582850023E6
:1014FC002222C36380F83A20026880F83830816277
:10150C00D168184641F48071D160516941F00101F4
:10151C005161D16841F02001D160704701207047C2
:10152C0002207047704710B590F83A30222B33D117
:10153C008168836AB1F5805F026820D1016909BBBB
:10154C005268C2F3080223F8022BC48D8362013C5B
:10155C00A4B2C4858CB90368DA6822F02002DA6080
:10156C00DA6822F48072DA605A6922F001025A6158
:10157C00202380F83A30FEF7EBFD00200DE039B95E
:10158C00016929B95268D2B21A70836A0133DCE757
:10159C00526802F07F02F7E7022010BD704700008E
:1015AC00036870B51A6804461607D9685D6907D1D7
:1015BC0096065CD58D065AD5BDE87040FFF7B3BFD3
:1015CC0005F0010001F49075054350D0D60705D500
:1015DC00CD0542BFE36B43F00103E363530704D52E
:1015EC0018B1E36B43F00203E363960704D518B11B
:1015FC00E36B43F00403E363150707D501F0200305
:10160C0003431EBFE36B43F00803E363E36B4BB38D
:10161C00900604D5890602D52046FFF784FF23687F
:10162C0020465B69E56B03F0400305F008051D439C
:10163C0019D0FFF75DFE23685A6952060FD55A6917
:10164C00606B22F040025A6148B1254B4363FFF7AF
:10165C00AFF838B1606BBDE87040436B184720465B
:10166C00FFF79CFF70BDFFF799FFE563FAE71606DD
:10167C0026D50D0624D594F83920212AF2D1A1685B
:10168C00226AB1F5805F16D12169A1B932F8021B2B
:10169C00C1F3080159602262E28C013A92B2E284F1
:1016AC00002ADFD1DA6822F08002DA60DA6842F0D0
:1016BC004002DA60D6E7511C216212785A60EBE7DF
:1016CC005006CFD54A06CDD5DA68204622F0400226
:1016DC00DA60202384F83930FFF724FFC2E700BF1B
:1016EC00F116000808B50023406AC385C384FFF7D0
:1016FC0055FF08BD70B500260C4D0D4C641BA41095
:10170C00A64209D100F022F800260A4D0A4C641BAF
:10171C00A410A64205D170BD55F8043B984701367C
:10172C00EEE755F8043B98470136F2E79C170008A2
:10173C009C1700089C170008A017000803460244D9
:10174C00934200D1704703F8011BF9E7F8B500BFCD
:10175C00F8BC08BC9E467047F8B500BFF8BC08BC86
:04176C009E467047DE
:101770000000000000000000010203040607080941
:101780000000000001020304020304050607080923
:0C1790000A0B0C0D0E0F101000000000E2
:04179C00310100080F
:0417A0000D0100082F
:1017A4000A4D6F746F72204B6F6E74726F6C204DA4
:1017B400656E750D0A302D2044632041630D0A3196
:1017C4002D204463204B617061740D0A322D204436
:1017D400632048697A2B0D0A332D2044632048691D
:1017E4007A2D0D0A00342D20537465702041630D49
:1017F4000A352D2053746570204B617061740D0A95
:10180400362D20537465702048697A2B0D0A372DC4
:1018140020537465702048697A2D0D0A00382D20F4
:10182400536572766F204163692B0D0A392D20535D
:101834006572766F204163692D0D0A000500000072
:10184400140000000024F400010000001000000057
:04000005080005EDFD
:00000001FF
